:020000040800F2
:1000000000C00020814E0008CD4D0008D14D0008F1
:10001000D54D0008D94D0008DD4D00080000000056
:10002000000000000000000000000000E14D00089A
:10003000E54D000800000000E94D0008ED4D000806
:10004000C94E0008C94E0008C94E0008C94E000834
:10005000C94E0008C94E0008C94E0008C94E000824
:10006000C94E0008C94E0008C94E0008C94E000814
:10007000C94E0008C94E0008C94E0008C94E000804
:10008000C94E0008C94E0008C94E0008C94E0008F4
:10009000C94E0008C94E0008C94E0008C94E0008E4
:1000A000C94E0008C94E0008C94E0008C94E0008D4
:1000B000C94E0008C94E0008C94E0008C94E0008C4
:1000C000C94E0008C94E0008C94E0008C94E0008B4
:1000D000C94E0008F14D0008C94E0008C94E00087D
:1000E000C94E0008C94E0008C94E0008C94E000894
:1000F000C94E0008C94E0008C94E0008C94E000884
:10010000C94E0008C94E0008C94E0008C94E000873
:10011000C94E0008C94E0008C94E0008C94E000863
:10012000C94E0008C94E0008C94E0008C94E000853
:1001300000000000000000000000000000000000BF
:1001400000000000000000000000000000000000AF
:10015000000000000000000000000000000000009F
:10016000000000000000000000000000000000008F
:10017000000000000000000000000000000000007F
:10018000000000000000000000000000000000006F
:10019000000000000000000000000000000000005F
:1001A000000000000000000000000000000000004F
:1001B000000000000000000000000000000000003F
:1001C000000000000000000000000000000000002F
:1001D000000000000000000000000000000000001F
:0401E0005FF8E0F1F3
:1001E40010B5054C237833B9044B13B10448AFF36D
:1001F40000800123237010BD700000200000000067
:100204004457000808B5034B1BB103490348AFF337
:10021400008008BD0000000074000020445700085E
:1002240038B54FF47A730D490D4A09781268B3FB57
:10023400F1F30546B2FBF3F000F094F808B90F2D82
:1002440001D9012038BD0446024629464FF0FF304B
:1002540000F052F8034B20461D6038BD000000201A
:100264000800002004000020074A08B51368032092
:1002740043F01003136000F02DF80020FFF7D0FFC7
:1002840004F046FD002008BD00200240034A044B50
:1002940011681B780B441360704700BF2C010020C9
:1002A40000000020014B1868704700BF2C0100209B
:1002B40038B50446FFF7F6FF631C054602D0044B2D
:1002C4001B781C44FFF7EEFF401BA042FAD338BD55
:1002D400000000204FF6FF01064A0002D36800F434
:1002E400E0600B4043F0BF6343F400330343D36047
:1002F400704700BF00ED00E0184B30B4DB68C3F377
:100304000223C3F10705042D03F1040428BF0425C7
:10031400062C19D94FF0FF34033B9C4022EA040415
:100324004FF0FF32AA4021EA020101FA03F222430C
:1003340012010028D2B20ADB00F1604000F56140EE
:1003440080F8002330BC704700242346E8E7044BC0
:1003540000F00F0003441A7630BC704700ED00E053
:10036400FCEC00E00138B0F1807F0DD230B4F02510
:1003740000220721054B064C586084F82350104690
:1003840030BC9A60196070470120704710E000E0AB
:1003940000ED00E00A68002A00F0F0802DE9F04F3B
:1003A4004FF0000A85B05546DFF814C2DFF814E2B6
:1003B4007C4FDFF8148204E0013532FA05F300F0D3
:1003C40083800123AB4002EA0304A342F4D14A68C8
:1003D400122A00F0A98000F29280022A00F0A8807C
:1003E40040F28680032A72D0112A02D1CB6803F12D
:1003F400040AFF2C6FD881460368AA000F2606FA68
:1004040002FB23EA0B030AFA02F21343C9F8003091
:100414004A68D3006AD5DCF8189025F0030349F044
:100424000109CCF81890DCF8189003F1804309F026
:100434000109CDF80C9003F5803305F00309DDF8CC
:100444000CB04FEA8909D3F808B006FA09F62BEA8A
:1004540006067045019619D040456DD0524EB04203
:1004640000F08D80514EB04200F09280504EB04268
:100474007BD0504EB0420CBF4FF0050B4FF0060B33
:10048400019E0BFA09F946EA090601969E603B684B
:10049400D6034CBF2343A3433B607B6896034CBF06
:1004A4002343A3437B60BB68D6024CBF2343A343CF
:1004B400BB609202FB6816D51C43FC600A680135D8
:1004C40032FA05F37FF47DAF05B0BDE8F08FFF2C61
:1004D4004FF0000A8FD905F18042083A4368920030
:1004E40000F104098AE723EA0404FC600A6863E76C
:1004F400AAB1012A7FF47DAFD1F80CA079E72E4E82
:10050400B2420CD020D92D4EB24208D006F5803626
:10051400B24204D0A6F58016B2427FF46AAF8A686C
:10052400E2B94FF0040A64E7CB6803F10C0A60E710
:10053400CB6803F1080A5CE74FF0010B0BFA09F9E9
:1005440046EA09060196A1E7A6F58016B242E6D06E
:1005540006F58036B2427FF44CAFE0E7012A0CBFC7
:10056400036143614FF0080A43E74FF0040B019E17
:100574000BFA09F946EA0906019687E770474FF036
:10058400020B019E0BFA09F946EA090601967DE77A
:100594004FF0030B019E0BFA09F946EA090601968E
:1005A40074E700BF00040140001001400014014042
:1005B40000180140001C014000002110000031100F
:1005C4000010024000080140000C014083681942F9
:1005D40014BF01200020704702B90904016170476B
:1005E400002800F055812DE9F041036882B0DD0751
:1005F400044635D5A8494A6802F00C02042A00F0E2
:1006040005814A6802F00C02082A00F0FB80636846
:10061400B3F5803F10D0002B00F02081B3F5A02F5C
:1006240000F078819C4B1A6822F480321A601A68B0
:1006340022F480221A6004E0974A136843F480335A
:100644001360FFF72FFE944D064605E0FFF72AFEE0
:10065400801B642800F2F5802B689A03F6D5236882
:100664009F074DD41A0722D5A369002B00F0BA8046
:1006740001228A4B884D1A60FFF714FE064605E0F6
:10068400FFF710FE801B022800F2DB806B6A9B07D9
:10069400F6D5834B834A1B68A2FB03235B0A0193B1
:1006A40000BF019B5A1E0192002BF9D123685D07FC
:1006B40069D5794BDA69D00000F1EC800125DA695B
:1006C40042F08052DA61DB6903F080530093009BAF
:1006D400754B1A68D10540F1A380E368012B37D02C
:1006E400002B00F0E780052B6B4B1A6A00F01F818A
:1006F40022F001021A621A6A22F004021A622CE041
:10070400654A516811F00C0F61D0516801F00C0179
:10071400082959D02369002B00F0EB800122634B98
:100724005D4D1A60FFF7BEFD064605E0FFF7BAFD12
:10073400801B022800F285802B689807F6D52B6869
:10074400626923F0F80343EAC2032B60236889E754
:10075400514A136A43F001031362FFF7A3FD4E4E9F
:10076400804641F2883705E0FFF79CFDA0EB0800C6
:10077400B84266D8336A9B07F6D525B1464AD36991
:1007840023F08053D361E069D0B1434D6A6802F02D
:100794000C02082A00F0D38002284FF00001444ADA
:1007A40000F0DE801160FFF77DFD2C46054604E075
:1007B400FFF778FD401B022843D823689B01F7D438
:1007C400002002B0BDE8F0815268D603A2D4324AB8
:1007D4001268950739D52269012A36D0012002B062
:1007E400BDE8F0812D4A2C4D1360FFF75BFD0646F2
:1007F40004E0FFF757FD801B022822D86B6A9F078D
:10080400F7D453E74A68D0037FF501AF224A126850
:1008140091037FF525AF6268002A7FF421AFDDE7FD
:100824001A681E4642F480721A60FFF73BFD0746C1
:100834003368DA053FF551AFFFF734FDC01B642878
:10084400F6D9032002B0BDE8F081134960690A6853
:1008540022F0F80242EAC0020A6003E703F180438F
:1008640003F504331A681D4622F480321A601A68AC
:1008740022F480221A60FFF715FD064604E0FFF714
:1008840011FD801B6428DCD82B689B03F7D4E6E6B3
:100894000120704700251BE70010024080044242FB
:1008A40008000020D34D6210007000400000424256
:1008B4006000424203F1804303F504331A6A1E4682
:1008C40022F001021A621A6A41F2883822F0040204
:1008D4001A62FFF7E7FC074604E0FFF7E3FCC01BDE
:1008E4004045AED8336A9807F7D4002D3FF44BAF98
:1008F40044E7344A344D1360FFF7D4FC064604E061
:10090400FFF7D0FC801B02289BD82B689907F7D4EB
:100914002368A7E603F18043A3F53C331A6842F445
:1009240080221A601A6842F480321A6089E642F022
:1009340004021A621A6A42F001021A620DE70128DF
:100944003FF44DAF6B68226A03F4803191427FF427
:1009540045AF606A03F47013181A18BF01203EE70C
:100964001160FFF79FFC064605E0FFF79BFC801B28
:1009740002283FF666AF2B689901F6D4226AB2F5D5
:10098400803F05D16B68A16823F400330B436B608F
:1009940001250D4B606A5968024321F474110B4818
:1009A4000A435A6005601C46FFF77CFC054605E0D7
:1009B400FFF778FC401B02283FF643AF23689A01F7
:1009C400F6D5FDE6000042420010024060004242BB
:1009D40078B15D4A136803F007038B420BD21368A6
:1009E40023F007030B431360136803F007038B42E0
:1009F40001D0012070472DE9F041036886B09D07BE
:100A040014D55C0704D5514C626842F4E06262601C
:100A14001A0704D54D4C626842F4605262604B4C34
:100A24008568626822F0F0022A436260DB070446AC
:100A34000D4620D54268454B012A1B686FD0022A17
:100A44007ED0980727D5414E41F28838736823F049
:100A5400030313437360FFF725FC074604E0FFF725
:100A640021FCC01B404569D87368626803F00C031D
:100A7400B3EB820FF3D1344A136803F00703AB429C
:100A84000DD9136823F007032B431360136803F095
:100A94000703AB4203D0012006B0BDE8F081236810
:100AA400590706D52949E0684A6822F4E0620243FE
:100AB4004A601A0707D5254A2169536823F460530D
:100AC40043EAC103536040F20122214B06ACADF866
:100AD40004200FCB04E90F001C494A6802F00C0300
:100AE400082B1AD1C2F38343234413F8100CD30305
:100AF40018D4184B03FB00F3144A174852681749DB
:100B0400C2F30312805C164AC34008681360FFF7FF
:100B140087FB002006B0BDE8F081124BECE79F0391
:100B240091D4B8E74A680F4BC2F3404203FB00F389
:100B3400224412F8142CB3FBF2F3DDE70320ABE7F5
:100B44009E0180D4A7E700BF0020024000100240AD
:100B54005C57000800093D000C5800080400002000
:100B64000800002000127A002DE9F04104460068D4
:100B740082B0C5072AD53A4BDA69D1003DD5394B45
:100B840000251A68D20546D5354960680A6A12F408
:100B940040720FD000F4407393420BD0012700261B
:100BA4000B6A314A23F44070176016600862D80754
:100BB40045D460682A4A136A23F4407303431362DA
:100BC4001DB1D36923F08053D3612068830706D510
:100BD400234AA168536823F440430B43536010F045
:100BE400100007D000201E4A6169536823F4800373
:100BF4000B43536002B0BDE8F081DA69012542F08D
:100C04008052DA61DB6903F080530193019B154B39
:100C14001A68D205B8D41A681E4642F480721A6063
:100C2400FFF740FB07463368DB05ADD4FFF73AFB1B
:100C3400C01B6428F7D9032002B0BDE8F0810E463A
:100C4400FFF730FB41F288378046336A9A07B0D405
:100C5400FFF728FBA0EB0800B842F6D9EBE700BF8A
:100C640000100240007000404004424200283BD083
:100C7400F8B5002390F851100446836201F0FF0296
:100C840061B31A46D4E90136022700210125E06840
:100C940033432669034360693343E669D4F818C0D3
:100CA4000343206A3343266884F8517003430CF4E9
:100CB4000070034330684FEA1C4C134320F040009B
:100CC4000CF00402306033607260F369084623F468
:100CD4000063F361616584F85150F8BD80F85020D9
:100CE40004F036F8A26ACDE7012070472DE9F041FF
:100CF40090F8504082B0012C5ED01F46012380F84A
:100D04005030044616460D46FFF7CCFA804694F858
:100D14005100C0B2012809D002200122002384F826
:100D2400512084F8503002B0BDE8F081002DF4D099
:100D3400002EF2D000230321A26884F85110B2F5EA
:100D4400004F63652563E686A686A363A387C4E98B
:100D54001033E387206803D1036843F480430360BE
:100D640003685B062CD5E3686268B3F5006F45D071
:100D7400002A6ED12B780373E38E226B013B9BB266
:100D840001322068E38622637E1C0BD028E0236BAB
:100D94001B780373E38E226B013B9BB20132E38623
:100DA40022632068E38E9BB2002B40D083689D07AA
:100DB400EDD4FFF777FAF4E7022002B0BDE8F08142
:100DC400036843F040030360CDE7236B1B78037390
:100DD400E38E226B013B9BB20132E38622632068DF
:100DE400E38E9BB21BB383689B07EED4FFF75AFADA
:100DF400A0EB0800B842F2D303208EE7002A76D095
:100E0400012E74D0791C59D1E38E9BB27BB18368D7
:100E14009A0768D5226B32F8023BC360E38E2263E3
:100E2400013B9BB2E386E38E9BB2002BEFD1791C8E
:100E340012D183681A06FCD4A3682BB90193C36842
:100E4400019383680193019B606D003018BF0120FA
:100E540063E7012E98D18DE783681B06ECD5FFF775
:100E640021FAA0EB080087422068E0D86168426854
:100E7400B1F5827F22F0E002A368426040D0A26A0A
:100E8400B2F5005F07D1026822F4005202600268E2
:100E940042F40052026001222021002584F85120EE
:100EA400626D84F850500A4362656165C5E7FFF7D7
:100EB400F9F9A0EB0800B8429ED22068E38E9BB2F9
:100EC400002BB4D083689D07F1D5226B32F8023B26
:100ED400C360E38E2263013B9BB2E386E38E9BB245
:100EE400002BEFD1A3E7FFF7DDF920688CE735F895
:100EF400023BC360E38E2563013B9BB2E38681E73B
:100F0400B3F5004F02D0B3F5806FB8D1026822F078
:100F140040020260B3E700BF2DE9F0410446406897
:100F24001D46B0F5827F82B00F46904694F850304B
:100F340018D0012B00F0A580012384F85030FFF76E
:100F4400B1F9064694F85100C0B2012800F09D8022
:100F540002200122002384F8512084F8503002B08A
:100F6400BDE8F081A268002AE3D10422012B84F8B1
:100F7400512000F08680012384F85030FFF792F965
:100F840094F851300646DBB2012B626807D0B2F503
:100F9400827FDDD1A1680029DAD1042BD8D1002FBA
:100FA40000F03681B8F1000F00F0328194F851302E
:100FB4000021042B1CBF052384F85130236861658C
:100FC400A4F83E80A4F836801868A7634006A4F805
:100FD4003C802763A4F83480C4E9101103D4196851
:100FE40041F040011960E168B1F5006F00F03E8105
:100FF400002A00F02581B8F1010F00F021816F1C57
:1010040040F07681012526E09A6896070FD5E28E96
:1010140092B262B15DB10025226B12781A73E28E2E
:10102400236B013A591C92B22368E28621639A68C1
:10103400D0070DD5E28F92B252B10125DA68A36BC5
:101044001A70E38FA26B013B2A449BB2A263E3872D
:10105400FFF728F92368E28E92B2002AD4D1E28FF6
:1010640092B2002AD0D19A681206FCD4A068002853
:1010740040F03C810190DA6801929B680193019BE6
:1010840067E7022002B0BDE8F081002F3FF461AFB2
:10109400B8F1000F3FF45DAF0422002384F851201F
:1010A400A2686365B2F5004F2363A386C4E91033D5
:1010B400A4F83E80A763E386A4F83C80236876D036
:1010C4001A68500603D41A6842F040021A60E268B3
:1010D400B2B96F1C0BD05CE01A7BA36B1A70E38F60
:1010E400A26B013B9BB20132E387A2632368E28FC8
:1010F40092B2D2B19A68D007EED4FFF7D3F8F5E7ED
:10110400691C26D1E28F92B27AB19A68D20753D57C
:10111400DA68A16B21F8022BE28FA163013A92B243
:10112400E287E28F92B2002AEFD16268B2F5827F41
:1011340070D0691C44D19A681206FCD4606D0030EA
:1011440018BF012005E7FFF7ADF8801BA8422CD299
:101154002368E28F92B2002AE7D09A68D207F2D5C8
:10116400DA68A16B21F8022BE28FA163013A92B2F3
:10117400E287E28F92B2002AEFD1D6E71A7BA36B03
:101184001A70E38FA26B013B9BB20132E387A26327
:101194002368E28F92B2002AC7D09A68D107EDD4AF
:1011A400FFF780F8801BA842F2D30320D1E61A6827
:1011B40022F480421A6083E7FFF774F82368A1E7FA
:1011C4009B681B06BAD5FFF76DF8801B8542236820
:1011D400AFD861685A68B1F5827F22F0E0025A60A4
:1011E40000F0CA80A26AB2F5005F07D11A6822F43F
:1011F40000521A601A6842F400521A60012384F8FB
:101204005130636D43F0200363652023636595E7E4
:1012140001209EE6A268B2F5004F0CD0B2F5806FB3
:1012240087D11A6822F040021A606F1C13D19A68A1
:10123400D507FCD482E71A6822F040021A6078E7E6
:101244003A781A73E38E226B013B9BB20132E38638
:1012540022632368D3E69B68D8077FF56FAFFFF757
:1012640021F8801B85422368DFD8B2E7002A34D0F6
:10127400B8F1010F31D06F1C40F08B80012523E0C1
:101284009A6896070DD5E28E92B252B14DB10025FF
:10129400216B31F8022BDA60E28E2163013A92B2BB
:1012A400E2869A68D0070CD5E28F92B24AB1012542
:1012B400DB68A26B22F8023BE38FA263013B9BB283
:1012C400E387FEF7EFFF2368E28E92B2002AD7D1BC
:1012D400E28F92B2002AD3D1C5E637F8022BDA6046
:1012E400E28E2763013A92B2E286C4E7002030E638
:1012F40001272AE09A6891070FD5E28E92B262B173
:101304005FB10027226B12781A73E38E226B013BC4
:101314009BB20132E386236822639A68D2070DD513
:10132400E28F92B252B10127DA68A36B1A70E38F8D
:10133400A26B013B9BB23A44E387A263FEF7B2FF80
:10134400801B85427FF631AF2368E28E92B2002A79
:10135400D0D1E28F92B2002ACCD109E09A68170664
:101364007FF584AEFEF79EFF801B8542236841D93A
:10137400691C3FF478AEF1E7A268B2F5004F03D0E0
:10138400B2F5806F7FF42EAF1A6822F040021A6023
:1013940028E7012700E02368E28E92B21AB9E28FAF
:1013A40092B2002AE4D09A6891070DD5E28E92B2E7
:1013B40052B14FB10027216B31F8022BDA60E28E73
:1013C4002163013A92B2E2869A68D2070CD5E28F81
:1013D40092B24AB10127DB68A26B22F8023BE38F89
:1013E400A263013B9BB2E387FEF75CFF801B85424F
:1013F400D1D8DAE661685A68B1F5827F22F0E0025A
:101404005A6014D0A26AB2F5005F07D11A6822F4B8
:1014140000521A601A6842F400521A600120202215
:1014240084F85100636D13436365626591E5A268B6
:10143400B2F5004F02D0B2F5806FE3D11A6822F002
:1014440040021A60DEE700BF8A232DE9F0430A2533
:1014540083B002AC04F8013D81460022AE488846C0
:101464004FF40061FFF7B8F821464FF4FA730122F4
:10147400AA48FFF73BFC4FF4FA730DF10601012271
:10148400A648FFF749FD01224FF40061A248FFF787
:10149400A3F89DF80630002223F004034FF4006102
:1014A4009D488DF803308DF80750FFF795F82146D5
:1014B4004FF4FA7301229948FFF718FC4FF4FA73BA
:1014C40001220DF103019548FFF710FC01224FF4AE
:1014D40000619148FFF780F89423142500224FF40B
:1014E40000618D488DF80730FFF776F821464FF4F8
:1014F400FA7301228948FFF7F9FB4FF4FA730DF1EF
:10150400060101228548FFF707FD01224FF400611F
:101514008148FFF761F89DF80630002263F07F03ED
:101524004FF400617C488DF802308DF80750FFF7C6
:1015340053F821464FF4FA7301227848FFF7D6FB9B
:101544004FF4FA7301220DF102017448FFF7CEFB48
:1015540001224FF400617048FFF73EF86E4F6F4E62
:1015640009F1FF3509F101094FF0120C15F8013F9B
:1015740000224FF4006138468DF807C08DF804301E
:10158400FFF72AF84FF4FA73012221463046FFF799
:10159400ADFB4FF4FA73012201A93046FFF7A6FB15
:1015A40001224FF400613846FFF716F84D45DBD1B0
:1015B400022303258A2700224FF4006156488DF840
:1015C40005508DF80730FFF707F84FF4FA7301223E
:1015D40021465248FFF78AFB4FF4FA7301220DF1BA
:1015E40005014E48FFF782FB01224FF400614A488F
:1015F400FEF7F2FF00224FF4006147488DF80770B0
:10160400FEF7EAFF4FF4FA73012221464348FFF73D
:101614006DFB4FF4FA7301220DF106013F48FFF709
:101624007BFC01224FF400613B48FEF7D5FF4FF0ED
:10163400FE099DF80620384E384D22E04FF4006133
:1016440030468DF80770FEF7C7FF4FF4FA73012296
:1016540021462846FFF74AFB4FF4FA7301220DF1A5
:1016640006012846FFF758FC01224FF4006130467A
:10167400FEF7B2FF09F1FF3313F0FF099DF80620CE
:1016840002D012F00402D9D0C42300224FF4006126
:1016940021488DF80730FEF79FFF21464FF4FA7377
:1016A40001221E48FFF722FB4FF4FA730DF10601E5
:1016B40001221A48FFF730FC01224FF4006116485A
:1016C400FEF78AFFC2239DF80610002288F8001056
:1016D40011484FF400618DF80730FEF77DFF214675
:1016E4004FF4FA7301220D48FFF700FB0DF10601D8
:1016F4004FF4FA7301220948FFF70EFC01224FF45C
:1017040000610548FEF768FF9DF8063088F801304F
:1017140003B0BDE8F08300BF001401403001002095
:101724002DE9F04F0425F72385B004AC04F8015DDE
:1017340080468946BB484FF40061924600228DF8EA
:101744000930FEF749FF21464FF4FA730122B648E7
:10175400FFF7CCFA4FF4FA7301220DF10901B248F4
:10176400FFF7C4FA01224FF40061AE48FEF734FFDC
:101774008823082500224FF40061AA488DF80F3011
:10178400FEF72AFF21464FF4FA730122A648FFF719
:10179400ADFA4FF4FA730DF10E010122A248FFF7DE
:1017A400BBFB01224FF400619E48FEF715FF9DF834
:1017B4000E30002203F07F034FF4006199488DF846
:1017C40008308DF80F50FEF707FF21464FF4FA73E7
:1017D40001229548FFF78AFA4FF4FA730DEB0501DD
:1017E40001229148FFF782FA01224FF400618D48EB
:1017F400FEF7F2FE9423142500224FF40061894879
:101804008DF80F30FEF7E8FE21464FF4FA730122FB
:101814008548FFF76BFA4FF4FA730DF10E010122BC
:101824008148FFF779FB01224FF400617D48FEF700
:10183400D3FE9DF80E30002263F07F034FF4006165
:1018440078488DF807308DF80F50FEF7C5FE214615
:101854004FF4FA7301227448FFF748FA4FF4FA730D
:1018640001220DF107017048FFF740FA01224FF4FD
:1018740000616C48FEF7B0FE002302251A464FF4BF
:10188400006168488DF806308DF80F50FEF7A4FE0D
:1018940021464FF4FA7301226348FFF727FA4FF405
:1018A400FA7301220DF106015F48FFF71FFA0122C6
:1018B4004FF400615B48FEF78FFE5A4F5A4E08F111
:1018C400FF3508F103084FF0120C15F8013F002210
:1018D4004FF4006138468DF80FC08DF80A30FEF7DA
:1018E4007BFE4FF4FA73012221463046FFF7FEF9DE
:1018F4004FF4FA7301220DF10A013046FFF7F6F9AD
:1019040001224FF400613846FEF766FEA845DAD19D
:1019140002230C2500224FF4006142488DF80B503D
:101924008DF80F30FEF758FE4FF4FA73012221466A
:101934003D48FFF7DBF94FF4FA7301220DF10B0177
:101944003948FFF7D3F901224FF400613548FEF717
:1019540043FE9A231A254FF0880B00224FF40061AE
:1019640030488DF80F30FEF737FE4FF4FA7301223A
:1019740021462D48FFF7BAF94FF4FA7301220DF10D
:101984000E012948FFF7C8FA01224FF400612548E7
:10199400FEF722FE9DF80E30002263F07F034FF421
:1019A400006120488DF80C308DF80F50FEF714FEBE
:1019B4004FF4FA73012221461B48FFF797F94FF4BD
:1019C400FA73012203A91848FFF790F901224FF492
:1019D40000611448FEF700FE00224FF40061114834
:1019E4008DF80FB0FEF7F8FD4FF4FA73012221468B
:1019F4000D48FFF77BF94FF4FA7301220DF10E0144
:101A04000948FFF789FA01224FF400610548FEF7FF
:101A1400E3FD40F2CF769DF80E50DFF80880024FC8
:101A240024E000BF00140140300100204FF40061A5
:101A340040468DF80FB0FEF7CFFD4FF4FA73012244
:101A440021463846FFF752F94FF4FA7301220DF19B
:101A54000E013846FFF760FA01224FF40061404658
:101A6400FEF7BAFD013E9DF80E5002D015F031028A
:101A7400DCD09A231A2700224FF4006174488DF8B1
:101A84000F30FEF7A9FD4FF4FA7301222146714885
:101A9400FFF72CF94FF4FA7301220DF10E016D4892
:101AA400FFF73AFA01224FF400616948FEF794FD0A
:101AB4009DF80E30002203F07F034FF40061644868
:101AC4008DF80D308DF80F70FEF786FD4FF4FA7324
:101AD400012221465F48FFF709F901220DF10D01AA
:101AE4004FF4FA735B48FFF701F901224FF40061E8
:101AF4005748FEF771FD002E00F09F808C230022D2
:101B04004FF4006152488DF80F30FEF765FD4FF435
:101B1400FA73012221464F48FFF7E8F84FF4FA73AD
:101B240001220DF10E014B48FFF7F6F901224FF4A3
:101B340000614748FEF750FD9DF80E2012F01B0689
:101B44007BD1942332464FF4006141488DF80F3025
:101B5400FEF742FD4FF4FA73012221463D48FFF798
:101B6400C5F84FF4FA7301220DF10E013948FFF75D
:101B7400D3F901224FF400613548FEF72DFD982377
:101B840032464FF4006132489DF80E608DF80F30F4
:101B9400FEF722FD4FF4FA73012221462D48FFF788
:101BA400A5F84FF4FA7301220DF10E012948FFF74D
:101BB400B3F901224FF400612548FEF70DFD9DF8AD
:101BC4000E3005F0010513F007031ABF06F1FF32CA
:101BD40003EBC203F300CAF800309EBB4FF00108C8
:101BE40009F1FF391A4F1B4EC844922300224FF4C7
:101BF400006138468DF80F30FEF7EEFC4FF4FA73AF
:101C0400012221463046FFF771F84FF4FA7301229E
:101C14000DF10E013046FFF77FF901224FF4006108
:101C24003846FEF7D9FC9DF80E3009F8013FC1454E
:101C3400DBD1284605B0BDE8F08F0225284605B063
:101C4400BDE8F08F102E28BF1026B046C8E700BFAD
:101C5400001401403001002070B5400082B0144DE2
:101C640000F07E0002AC134E60F07F0004F8010D1A
:101C7400002228464FF40061FEF7AEFC21463046B0
:101C84004FF4FA730122FFF731F84FF4FA730DF1B0
:101C9400060130460122FFF73FF9284601224FF49E
:101CA4000061FEF799FC9DF8060002B070BD00BF0C
:101CB400001401403001002002220F23F0B5954C9E
:101CC40085B0954D04AE06F8012D204600224FF450
:101CD40000618DF80D30FEF77FFC314628464FF445
:101CE400FA730122FFF702F84FF4FA730DF10D01B4
:101CF40028460122FEF7FAFF204601224FF4006134
:101D0400FEF76AFC80275423204600224FF400612A
:101D14008DF80C708DF80F30FEF75EFC31462846C6
:101D24004FF4FA730122FEF7E1FF4FF4FA7303A9AB
:101D340028460122FEF7DAFF204601224FF4006113
:101D4400FEF74AFCA9275623204600224FF40061DF
:101D54008DF80B708DF80F30FEF73EFC31462846A7
:101D64004FF4FA730122FEF7C1FF4FF4FA730DF139
:101D74000B0128460122FEF7B9FF204601224FF449
:101D84000061FEF729FC03275A23204600224FF462
:101D940000618DF80A708DF80F30FEF71DFC314696
:101DA40028464FF4FA730122FEF7A0FF4FF4FA73AA
:101DB4000DF10A0128460122FEF798FF2046012270
:101DC4004FF40061FEF708FCE82758232046002260
:101DD4004FF400618DF809708DF80F30FEF7FCFBAD
:101DE400314628464FF4FA730122FEF77FFF4FF481
:101DF400FA730DF1090128460122FEF777FF204608
:101E040001224FF40061FEF7E7FB40272A23204616
:101E140000224FF400618DF808708DF80F30FEF742
:101E2400DBFB314628464FF4FA730122FEF75EFFCE
:101E34004FF4FA7302A928460122FEF757FF204601
:101E440001224FF40061FEF7C7FB3D272223204601
:101E540000224FF400618DF807708DF80F30FEF703
:101E6400BBFB314628464FF4FA730122FEF73EFFCE
:101E74004FF4FA730DF1070128460122FEF736FFED
:101E8400204601224FF40061FEF7A6FBA823282771
:101E9400204600224FF400618DF80F30FEF79CFBC2
:101EA400314628464FF4FA730122FEF71FFF0DF165
:101EB4000E014FF4FA7328460122FFF72DF820464D
:101EC40001224FF40061FEF787FB9DF80E30204697
:101ED40043F0030300224FF400618DF80E308DF8B7
:101EE4000F70FEF779FB314628464FF4FA7301224E
:101EF400FEF7FCFE0DF10E014FF4FA7328460122A1
:101F0400FEF7F4FE204601224FF40061FEF764FB65
:101F140005B0F0BD00140140300100202DE9F04768
:101F24001A260723F72484B004AD05F8016D07468B
:101F34008A4600224FF40061C4488DF80530FEF74C
:101F44004BFB29464FF4FA730122C148FEF7CEFE3B
:101F54004FF4FA7301220DF10501BD48FEF7C6FEE8
:101F640001224FF40061B948FEF736FB04234FF019
:101F740088098DF8094008248AF8007000224FF47B
:101F84000061B2488DF80F30FEF726FB29464FF466
:101F9400FA730122AE48FEF7A9FE4FF4FA73012248
:101FA4000DF10901AA48FEF7A1FE01224FF40061D8
:101FB400A648FEF711FB00224FF40061A3488DF8F8
:101FC4000F90FEF709FB29464FF4FA730122A0484B
:101FD400FEF78CFE4FF4FA730DF10E0101229C48BA
:101FE400FEF79AFF01224FF400619848FEF7F4FAD5
:101FF4009DF80E30002203F07F034FF400619348F4
:102004008DF808308DF80F40FEF7E6FA29464FF4B4
:10201400FA7301228E48FEF769FE4FF4FA730DEB52
:10202400040101228A48FEF761FE01224FF4006197
:102034008648FEF7D1FA942300224FF400618348C6
:102044008DF80F30FEF7C8FA29464FF4FA730122CF
:102054007F48FEF74BFE4FF4FA730DF10E01012297
:102064007B480024FEF758FF01224FF400617748B3
:10207400FEF7B2FA4FF0140C02279DF80E302246F8
:1020840063F07F034FF4006170488DF80FC08DF842
:102094000730FEF7A1FA29464FF4FA7301226C487F
:1020A400FEF724FE4FF4FA7301220DF1070168488C
:1020B400FEF71CFE01224FF400616448FEF78CFA1F
:1020C40022464FF4006161488DF806408DF80F7088
:1020D400FEF782FA29464FF4FA7301225C48FEF7B0
:1020E40005FE4FF4FA7301220DF106015848FEF77C
:1020F400FDFD01224FF400615448FEF76DFA1223EE
:102104009AF800C022464FF4006150488DF80AC086
:102114008DF80F30FEF760FA29464FF4FA73012266
:102124004B48FEF7E3FD4FF4FA7301220DF10A0167
:102134004748FEF7DBFD01224FF400614348FEF7F8
:102144004BFA0C2322464FF4006140488DF80F707F
:102154008DF80B30FEF740FA29464FF4FA7301224A
:102164003B48FEF7C3FD4FF4FA7301220DF10B0156
:102174003748FEF7BBFD01224FF400613348FEF7F8
:102184002BFA9A2322464FF4006130488DF80F3021
:10219400FEF722FA29464FF4FA7301222C48FEF77F
:1021A400A5FD4FF4FA730DF10E0101222848FEF744
:1021B400B3FE01224FF400612448FEF70DFA9DF8A6
:1021C4000E30224663F07F034FF400611F488DF800
:1021D4000F608DF80C30FEF7FFF929464FF4FA73BF
:1021E40001221B48FEF782FD4FF4FA73012203A972
:1021F4001748FEF77BFD01224FF400611348FEF7F8
:10220400EBF922464FF4006110488DF80F90FEF769
:10221400E3F929464FF4FA7301220D48FEF766FDEF
:102224000DF10E014FF4FA7301220948FEF774FE12
:1022340001224FF400610548FEF7CEF940F2CF7653
:102244009DF80E40DFF80480014F23E000140140A4
:10225400300100204FF4006140468DF80F90FEF7E6
:10226400BBF94FF4FA73012229463846FEF73EFDC6
:102274004FF4FA7301220DF10E013846FEF74CFEBD
:1022840001224FF400614046FEF7A6F9013E9DF895
:102294000E4002D014F03102DCD09A231A27002217
:1022A4004FF4006175488DF80F30FEF795F94FF43F
:1022B400FA73012229467248FEF718FD4FF4FA73A7
:1022C40001220DF10E016E48FEF726FE01224FF4A5
:1022D40000616A48FEF780F99DF80E30002203F091
:1022E4007F034FF4006165488DF80D308DF80F7051
:1022F400FEF772F94FF4FA73012229466048FEF79B
:10230400F5FC01220DF10D014FF4FA735C48FEF760
:10231400EDFC01224FF400615848FEF75DF9002EF0
:1023240000F0A2808C2300224FF4006153488DF802
:102334000F30FEF751F94FF4FA7301222946504841
:10234400FEF7D4FC4FF4FA7301220DF10E014C4850
:10235400FEF7E2FD01224FF400614848FEF73CF924
:102364009DF80E2012F01B067ED1942332464FF4C2
:10237400006142488DF80F30FEF72EF94FF4FA73DE
:10238400012229463E48FEF7B1FC4FF4FA730122BC
:102394000DF10E013A48FEF7BFFD01224FF4006132
:1023A4003648FEF719F9982332464FF40061334852
:1023B4009DF80E608DF80F30FEF70EF94FF4FA73A6
:1023C400012229462E48FEF791FC4FF4FA730122AC
:1023D4000DF10E012A48FEF79FFD01224FF4006122
:1023E4002648FEF7F9F89DF80E9004F0010419F060
:1023F40007091ABF06F1FF3309EBC3094FEAC609FF
:10240400B6BB4FF001080AF1FF3A1C4F1C4ED044F2
:10241400922300224FF4006138468DF80F30FEF706
:10242400DBF84FF4FA73012229463046FEF75EFCCE
:102434004FF4FA7301220DF10E013046FEF76CFDE4
:1024440001224FF400613846FEF7C6F89DF80E30BD
:102454000AF8013FD045DBD134B9B9F1100F03D1EB
:10246400204604B0BDE8F087022004B0BDE8F08740
:10247400102E28BF1026B046C5E700BF0014014047
:10248400300100202DE9F04F1A23002587B006AC57
:1024940004F8013D82462A464FF40061CD488DF888
:1024A4000D50FEF799F821464FF4FA730122CA48F9
:1024B400FEF71CFC4FF4FA7301220DF10D01C6481E
:1024C400FEF714FC01224FF40061C248FEF784F8C1
:1024D400932120220423F7268AF800108AF8012089
:1024E4004FF400612A46BB488DF811608DF817300F
:1024F400FEF772F821464FF4FA730122B648FEF74C
:10250400F5FB4FF4FA7301220DF11101B248FEF705
:10251400EDFB01224FF40061AE48FEF75DF888231D
:1025240008262A464FF40061AA488DF81730FEF7B2
:1025340053F821464FF4FA730122A748FEF7D6FB5D
:102544004FF4FA730DF116010122A348FEF7E4FCDF
:1025540001224FF400619F48FEF73EF89DF81630C3
:102564002A4603F07F034FF400619A488DF8103037
:102574008DF81760FEF730F821464FF4FA73012204
:102584009548FEF7B3FB4FF4FA73012204A992486D
:10259400FEF7ACFB01224FF400618E48FEF71CF8F5
:1025A400942314262A464FF400618A488DF8173084
:1025B400FEF712F821464FF4FA7301228648FEF71B
:1025C40095FB4FF4FA730DF1160101228248FEF7D0
:1025D400A3FC01224FF400617E48FDF7FDFF9DF846
:1025E40016302A4663F07F034FF4006179488DF872
:1025F4000F308DF81760FDF7EFFF21464FF4FA73A3
:1026040001227548FEF772FB4FF4FA7301220DF1B3
:102614000F017148FEF76AFB01224FF400616D4817
:10262400FDF7DAFF02232A464FF4006169488DF86A
:102634000E508DF81730FDF7CFFF21464FF4FA7393
:1026440001226548FEF752FB4FF4FA7301220DF1A3
:102654000E016148FEF74AFB0AF1FF3301224FF4F1
:1026640000615C4801939B461D46FDF7B5FF594F39
:10267400594E0AF101084FF0120C15F8013F0022DF
:102684004FF4006138468DF817C08DF81230FDF70D
:10269400A3FF4FF4FA73012221463046FEF726FBCE
:1026A4004FF4FA7301220DF112013046FEF71EFBBE
:1026B40001224FF400613846FDF78EFF4545DAD11B
:1026C40002230C2500224FF4006142488DF8135078
:1026D4008DF81730FDF780FF4FF4FA73012221467D
:1026E4003D48FEF703FB4FF4FA7301220DF1130189
:1026F4003948FEF7FBFA01224FF400613548FDF733
:102704006BFF9A231A254FF0880900224FF40061C9
:1027140030488DF81730FDF75FFF4FF4FA7301224C
:1027240021462D48FEF7E2FA4FF4FA7301220DF127
:1027340016012948FEF7F0FB01224FF400612548F9
:10274400FDF74AFF9DF81630002263F07F034FF433
:10275400006120488DF814308DF81750FDF73CFFC8
:102764004FF4FA73012221461B48FEF7BFFA4FF4D7
:10277400FA73012205A91848FEF7B8FA01224FF4AA
:1027840000611448FDF728FF00224FF4006111484E
:102794008DF81790FDF720FF4FF4FA7301222146BC
:1027A4000D48FEF7A3FA4FF4FA7301220DF1160156
:1027B4000948FEF7B1FB01224FF400610548FDF71B
:1027C4000BFF40F2CF769DF81650DFF80880024FD9
:1027D40024E000BF00140140300100204FF40061E8
:1027E40040468DF81790FDF7F7FE4FF4FA73012277
:1027F40021463846FEF77AFA4FF4FA7301220DF1B6
:1028040016013846FEF788FB01224FF4006140466A
:10281400FDF7E2FE013E9DF8165002D015F031029C
:10282400DCD09A231A2700224FF4006177488DF8F0
:102834001730FDF7D1FE4FF4FA7301222146744894
:10284400FEF754FA4FF4FA7301220DF116017048A1
:10285400FEF762FB01224FF400616C48FDF7BCFEF9
:102864009DF81630002203F07F034FF4006167489F
:102874008DF815308DF81770FDF7AEFE4FF4FA732E
:10288400012221466248FEF731FA01220DF11501B9
:102894004FF4FA735E48FEF729FA01224FF40061FF
:1028A4005A48FDF799FE002E00F0A6808C230022E2
:1028B4004FF4006155488DF81730FDF78DFE4FF445
:1028C400FA73012221465248FEF710FA4FF4FA73C4
:1028D40001220DF116014E48FEF71EFB01224FF4B2
:1028E40000614A48FDF778FE9DF8162012F01B0699
:1028F40040F08280942332464FF4006143488DF8BF
:102904001730FDF769FE4FF4FA730122214640485F
:10291400FEF7ECF94FF4FA7301220DF116013C486D
:10292400FEF7FAFA01224FF400613848FDF754FE2D
:10293400982332464FF4006134488DF817309DF8DF
:102944001660FDF749FE4FF4FA7301222146304820
:10295400FEF7CCF901220DF116014FF4FA732C485D
:10296400FEF7DAFA01224FF4006128481540FDF71A
:1029740033FE002E44D0102E28BF1026B046019BF3
:10298400224F43449846224E922300224FF4006182
:1029940038468DF81730FDF71FFE4FF4FA73012205
:1029A40021463046FEF7A2F94FF4FA7301220DF1E5
:1029B40016013046FEF7B0FA01224FF400613846A2
:1029C400FDF70AFE9DF816300BF8013FC345DBD135
:1029D400CDB99AF801109AF800309AF802204B40C9
:1029E4009AF8031053409AF804204B409A4203D1BA
:1029F400284607B0BDE8F08F022007B0BDE8F08F8D
:102A04004FF00108BBE70120F7E700BF00140140C5
:102A140030010020A0232DE9F04F8BB08DF8150074
:102A24000E4605A80DF116018DF81430FEF70CFDC5
:102A340005A9084604AAFEF773FE002840F0EC83BB
:102A440082468A2730687168B268F36805AD0FC59D
:102A54000A250AAC04F8197D52464FF400617848FF
:102A6400FDF7BAFD21464FF4FA7301227548FEF7CB
:102A74003DF94FF4FA730DF10E0101227148FEF78E
:102A84004BFA01224FF400616D48FDF7A5FD9DF856
:102A94000E30524623F004034FF4006168488DF869
:102AA40003308DF80F50FDF797FD21464FF4FA736C
:102AB40001226448FEF71AF94FF4FA7301220DF16A
:102AC40003016048FEF712F901224FF400615C48EB
:102AD400FDF782FD9423142552464FF400615848B3
:102AE4008DF80F30FDF778FD21464FF4FA7301227B
:102AF4005448FEF7FBF84FF4FA730DF10E0101226E
:102B04005048FEF709FA01224FF400614C48FDF7E2
:102B140063FD9DF80E30524663F07F034FF400616D
:102B240047488DF802308DF80F50FDF755FD2146CA
:102B34004FF4FA7301224348FEF7D8F84FF4FA73BE
:102B440001220DF102013F48FEF7D0F80DF1130800
:102B540001224FF400613A48FDF73EFD4546384FE7
:102B6400384E0DF1140B0DF123094FF0120C15F82A
:102B7400013F00224FF4006138468DF80FC08DF8F4
:102B84000430FDF729FD4FF4FA7301222146304643
:102B9400FEF7ACF84FF4FA73012201A93046FEF7B0
:102BA400A5F801224FF400613846FDF715FD4D45A7
:102BB400DBD1022303254FF08A0900224FF4006180
:102BC4001F488DF805508DF80F30FDF705FD4FF4C3
:102BD400FA73012221461B48FEF788F84FF4FA7372
:102BE40001220DF105011748FEF780F801224FF488
:102BF40000611348FDF7F0FC00224FF40061104817
:102C04008DF80F90FDF7E8FC4FF4FA73012221468A
:102C14000C48FEF76BF84FF4FA7301220DF10E0124
:102C24000848FEF779F901224FF400610448FDF7E2
:102C3400D3FCFE259DF80E20014F024E26E000BF76
:102C440000140140300100204FF4006138468DF833
:102C54000F90FDF7C1FC4FF4FA7301222146304670
:102C6400FEF744F84FF4FA7301220DF10E013046D9
:102C7400FEF752F9013D01224FF400613846FDF799
:102C8400ABFC15F0FF059DF80E2002D012F00402F3
:102C9400DAD0C423C22500224FF40061DB488DF84A
:102CA4000F30FDF799FC4FF4FA7301222146D848FE
:102CB400FEF71CF84FF4FA7301220DF10E01D4480B
:102CC400FEF72AF901224FF40061D048FDF784FC95
:102CD4009DF80E3000224FF40061CC488DF80F505F
:102CE4008DF82430FDF778FC4FF4FA730122214665
:102CF400C748FDF7FBFF4FF4FA7301220DF10E01F3
:102D0400C348FEF709F901224FF40061BF48FDF7FB
:102D140063FCF72004259DF80E3000224FF4006177
:102D24008DF80900B9488DF80F508DF82530FDF75E
:102D340053FC4FF4FA7301222146B548FDF7D6FF40
:102D44004FF4FA7301220DF10901B148FDF7CEFFEA
:102D540001224FF40061AD48FDF73EFC88230825AD
:102D640000224FF40061A9488DF80F30FDF734FCC0
:102D74004FF4FA7301222146A548FDF7B7FF4FF43B
:102D8400FA7301220DF10E01A148FEF7C5F80122E4
:102D94004FF400619D48FDF71FFC9DF80E300022A2
:102DA40003F07F034FF4006198488DF808308DF8E4
:102DB4000F50FDF711FC4FF4FA7301222146944899
:102DC400FDF794FF4FF4FA730DEB050101229048CF
:102DD400FDF78CFF01224FF400618C48FDF7FCFBEA
:102DE4009423142500224FF4006188488DF80F3095
:102DF400FDF7F2FB4FF4FA73012221468448FDF7F4
:102E040075FF4FF4FA7301220DF10E018048FEF7AD
:102E140083F801224FF400617C48FDF7DDFB9DF847
:102E24000E30002263F07F034FF4006177488DF881
:102E340007308DF80F50FDF7CFFB4FF4FA730122E2
:102E440021467348FDF752FF4FF4FA7301220DF146
:102E540007016F48FDF74AFF01224FF400616B48F8
:102E6400FDF7BAFB002302251A464FF400616748B8
:102E74008DF806308DF80F50FDF7AEFB4FF4FA7362
:102E8400012221466248FDF731FF4FF4FA73012213
:102E94000DF106015E48FDF729FF01224FF40061A0
:102EA4005A48FDF799FB594E594D0DF125074FF03E
:102EB400120C18F8013F00224FF4006130468DF8DF
:102EC4000FC08DF80A30FDF787FB4FF4FA73012227
:102ED40021462846FDF70AFF4FF4FA7301220DF14B
:102EE4000A012846FDF702FF01224FF40061304633
:102EF400FDF772FB4745DAD102230C2500224FF47B
:102F0400006142488DF80B508DF80F30FDF764FBDB
:102F14004FF4FA73012221463D48FDF7E7FE4FF4D2
:102F2400FA7301220DF10B013948FDF7DFFE01228E
:102F34004FF400613548FDF74FFB9A231A254FF0F3
:102F4400880900224FF4006130488DF80F30FDF7F6
:102F540043FB4FF4FA73012221462D48FDF7C6FEC8
:102F64004FF4FA7301220DF10E012948FDF7D4FF45
:102F740001224FF400612548FDF72EFB9DF80E3029
:102F8400002263F07F034FF4006120488DF80C3079
:102F94008DF80F50FDF720FB4FF4FA730122214600
:102FA4001B48FDF7A3FE4FF4FA73012203A9184846
:102FB400FDF79CFE01224FF400611448FDF70CFB61
:102FC40000224FF4006111488DF80F90FDF704FBC7
:102FD4004FF4FA73012221460D48FDF787FE4FF4A2
:102FE400FA7301220DF10E010948FDF795FF012244
:102FF4004FF400610548FDF7EFFA40F2CF769DF8F3
:103004000E50DFF80880024F24E000BF0014014096
:10301400300100204FF4006140468DF80F90FDF719
:10302400DBFA4FF4FA73012221463846FDF75EFEBF
:103034004FF4FA7301220DF10E013846FDF76CFFCF
:1030440001224FF400614046FDF7C6FA013E9DF8A7
:103054000E5002D015F03102DCD09A231A27002238
:103064004FF4006172488DF80F30FDF7B5FA4FF454
:10307400FA73012221466F48FDF738FE4FF4FA73C4
:1030840001220DF10E016B48FDF746FF01224FF4BA
:1030940000616748FDF7A0FA9DF80E30002203F0A6
:1030A4007F034FF4006162488DF80D308DF80F7086
:1030B400FDF792FA4FF4FA73012221465D48FDF7B9
:1030C40015FE01220DF10D014FF4FA735948FDF775
:1030D4000DFE01224FF400615548FDF77DFA002EE4
:1030E40000F09A808C2300224FF4006150488DF840
:1030F4000F30FDF771FA4FF4FA73012221464D485F
:10310400FDF7F4FD4FF4FA7301220DF10E01494865
:10311400FDF702FF01224FF400614548FDF75CFA18
:103124009DF80E2012F01B0676D1942332464FF4FC
:1031340000613F488DF80F30FDF74EFA4FF4FA73F3
:10314400012221463B48FDF7D1FD4FF4FA730122D9
:103154000DF10E013748FDF7DFFE01224FF4006147
:103164003348FDF739FA982332464FF4006130486A
:103174009DF80E608DF80F30FDF72EFA4FF4FA73B8
:10318400012221462B48FDF7B1FD4FF4FA730122C9
:103194000DF10E012748FDF7BFFE01224FF4006137
:1031A4002348FDF719FA9DF80E3005F0010513F0D8
:1031B40007031ABF06F1FF3203EBC203F3000493C3
:1031C40086BB4FF0010805AB194F1A4E9844922361
:1031D40000224FF4006138468DF80F30FDF7FCF9FA
:1031E4004FF4FA73012221463046FDF77FFD4FF478
:1031F400FA7301220DF10E013046FDF78DFE012216
:103204004FF400613846FDF7E7F99DF80E300BF8EE
:10321400013BC345DBD10DB14FF0020A50460BB060
:10322400BDE8F08F102E28BF1026B046CBE700BFB4
:1032340000140140300100204FF0040C2DE9F0414E
:10324400922586B006AC1F681668938804F80DCDE5
:103254008DF80C008DF80D1000224FF40061994890
:103264000597CDF80E60ADF812308DF80650FDF7D5
:10327400B3F921464FF4FA7301229348FDF736FD62
:103284004FF4FA7301220DF106018F48FDF72EFD6C
:1032940001224FF400618B48FDF79EF9882308252D
:1032A40000224FF4006187488DF80B30FDF794F944
:1032B40021464FF4FA7301228348FDF717FD4FF4BA
:1032C400FA730DF10A0101227F48FDF725FE012260
:1032D4004FF400617B48FDF77FF99DF80A30002226
:1032E40003F07F034FF4006176488DF805308DF8C4
:1032F4000B50FDF771F921464FF4FA73012272481D
:10330400FDF7F4FC4FF4FA7301220DF105016E4848
:10331400FDF7ECFC01224FF400616A48FDF75CF90B
:103324009423142500224FF4006166488DF80B3075
:10333400FDF752F921464FF4FA7301226248FDF772
:10334400D5FC4FF4FA730DF10A0101225E48FDF732
:10335400E3FD01224FF400615A48FDF73DF99DF861
:103364000A30002263F07F034FF4006155488DF862
:1033740004308DF80B50FDF72FF921464FF4FA7302
:1033840001225148FDF7B2FC4FF4FA73012201A95E
:103394004D48FDF7ABFC01224FF400614948FDF7AD
:1033A4001BF9002302251A464FF4006145488DF8A5
:1033B40003308DF80B50FDF70FF921464FF4FA73E3
:1033C40001224148FDF792FC4FF4FA7301220DF1FA
:1033D40003013D48FDF78AFC01224FF4006139489E
:1033E400FDF7FAF8374F384E03AD0DF118084FF0DA
:1033F400120C15F8013B00224FF4006138468DF899
:103404000BC08DF80730FDF7E7F84FF4FA7301228B
:1034140021463046FDF76AFC4FF4FA7301220DF1A0
:1034240007013046FDF762FC01224FF40061384683
:10343400FDF7D2F84545DAD102230E254FF088086E
:1034440000224FF400611F488DF808508DF80B30AE
:10345400FDF7C2F84FF4FA73012221461A48FDF72A
:1034640045FC4FF4FA73012202A91748FDF73EFC0C
:1034740001224FF400611348FDF7AEF800224FF427
:10348400006110488DF80B80FDF7A6F84FF4FA732D
:10349400012221460C48FDF729FC4FF4FA7301225E
:1034A4000DF10A010848FDF737FD01224FF40061D0
:1034B4000448FDF791F840F2CF759DF80A20014FBA
:1034C400014E23E000140140300100204FF400615C
:1034D40038468DF80B80FDF77FF84FF4FA7301221C
:1034E40021463046FDF702FC4FF4FA7301220DF138
:1034F4000A013046FDF710FD01224FF40061384601
:10350400FDF76AF8013D9DF80A2002D012F011027D
:10351400DCD09A231A2600224FF4006145488DF826
:103524000B30FDF759F84FF4FA7301222146424853
:10353400FDF7DCFB4FF4FA7301220DF10A013E485A
:10354400FDF7EAFC01224FF400613A48FDF744F824
:103554009DF80A30002203F07F034FF400613548E0
:103564008DF809308DF80B60FDF736F84FF4FA73D7
:10357400012221463048FDF7B9FB01220DF1090172
:103584004FF4FA732C48FDF7B1FB01224FF40061AC
:103594002848FDF721F8002D48D08C2300224FF451
:1035A400006124488DF80B30FDF716F84FF4FA73D8
:1035B400012221462048FDF799FB4FF4FA730122BA
:1035C4000DF10A011C48FDF7A7FC1A4801224FF42B
:1035D4000061FDF701F89DF80A0010F01B0525D1E4
:1035E40090232A464FF4006112488DF80B30FCF703
:1035F400F3FF21464FF4FA7301220F48FDF776FBDF
:103604004FF4FA730DF10A0101220B48FDF784FC13
:1036140001224FF400610748FCF7DEFF9DF80A30F1
:103624001B0703D5284606B0BDE8F081022006B08A
:10363400BDE8F08100140140300100202DE9F04F75
:1036440089B008AC47F29303A3468A220579066839
:103654008DF81A500A2504F80D2D2BF80C3D002284
:103664004FF400617748CDF81660FCF7B5FF2146AA
:103674004FF4FA7301227448FDF738FB4FF4FA73E0
:103684000DF1120101227048FDF746FC01224FF4AE
:1036940000616C48FCF7A0FF9DF81230002223F073
:1036A40004034FF4006167488DF807308DF8135018
:1036B400FCF792FF21464FF4FA7301226248FDF7AA
:1036C40015FB4FF4FA7301220DF107015E48FDF773
:1036D4000DFB01224FF400615A48FCF77DFF94234F
:1036E400142500224FF4006156488DF81330FCF77E
:1036F40073FF21464FF4FA7301225348FDF7F6FA9B
:103704004FF4FA730DF1120101224F48FDF704FC46
:1037140001224FF400614B48FCF75EFF9DF8123024
:10372400002263F07F034FF4006146488DF80630B1
:103734008DF81350FCF750FF21464FF4FA73012221
:103744004148FDF7D3FA4FF4FA7301220DF1060153
:103754003D48FDF7CBFA01224FF400613948A046F9
:10376400DA462546FCF738FF364F374E0DF11A0975
:103774004FF0120C15F8013F00224FF40061384657
:103784008DF813C08DF80830FCF726FF4FF4FA7358
:10379400012221463046FDF7A9FA4FF4FA730122BB
:1037A40002A93046FDF7A2FA01224FF4006138461F
:1037B400FCF712FFA945DBD1022303254FF08A0948
:1037C40000224FF400611F488DF809508DF8133022
:1037D400FCF702FF4FF4FA73012221461A48FDF761
:1037E40085FA4FF4FA7301220DF109011648FDF729
:1037F4007DFA01224FF400611248FCF7EDFE00222D
:103804004FF400610F488DF81390FCF7E5FE4FF478
:10381400FA73012221460C48FDF768FA4FF4FA7353
:1038240001220DF112010848FDF776FB01224FF445
:1038340000610448FCF7D0FEFE259DF81220014FDC
:10384400014E25E000140140300100204FF40061D6
:1038540038468DF81390FCF7BFFE4FF4FA7301223B
:1038640021463046FDF742FA4FF4FA7301220DF176
:1038740012013046FDF750FB013D01224FF4006177
:103884003846FCF7A9FE15F0FF059DF8122002D07A
:1038940012F00402DAD0C423C22500224FF40061DE
:1038A400DA488DF81330FCF797FE4FF4FA730122CF
:1038B4002146D748FDF71AFA4FF4FA7301220DF1A5
:1038C4001201D348FDF728FB01224FF40061CF48D1
:1038D400FCF782FE9DF8123000224FF40061CB48C1
:1038E4008DF813508DF81B30FCF776FE4FF4FA7305
:1038F40001222146C648FDF7F9F94FF4FA73012273
:103904000DF11201C248FDF707FB01224FF40061DB
:10391400BE48FCF761FEF72004259DF81230002212
:103924004FF400618DF80D00B8488DF813508DF8F0
:103934001C30FCF751FE4FF4FA7301222146B448BF
:10394400FDF7D4F94FF4FA7301220DF10D01B048DB
:10395400FDF7CCF901224FF40061AC48FCF73CFEC2
:103964008823082500224FF40061A8488DF81330FD
:10397400FCF732FE4FF4FA7301222146A448FDF706
:10398400B5F94FF4FA7301220DF11201A048FDF7C5
:10399400C3FA01224FF400619C48FCF71DFE9DF818
:1039A4001230002203F07F034FF4006197488DF832
:1039B4000C308DF81350FCF70FFE4FF4FA7301220C
:1039C40021469348FDF792F94FF4FA73012203A9B3
:1039D4008F48FDF78BF901224FF400618B48FCF707
:1039E400FBFD9423142500224FF4006187488DF8D1
:1039F4001330FCF7F1FD4FF4FA7301222146844899
:103A0400FDF774F94FF4FA7301220DF112018048A5
:103A1400FDF782FA01224FF400617C48FCF7DCFDDB
:103A24009DF81230002263F07F034FF40061774861
:103A34008DF80B308DF81350FCF7CEFD4FF4FA736C
:103A4400012221467248FDF751F94FF4FA7301221D
:103A54000DF10B016E48FDF749F901224FF40061A5
:103A64006A48FCF7B9FD002302251A464FF40061A9
:103A740066488DF80A308DF81350FCF7ADFD4FF40D
:103A8400FA73012221466248FDF730F94FF4FA73C4
:103A940001220DF10A015E48FDF728F901224FF4D5
:103AA40000615A48FCF798FD584E594D0BF1080730
:103AB4004FF0120C18F8013F00224FF40061304619
:103AC4008DF813C08DF80E30FCF786FD4FF4FA73B1
:103AD400012221462846FDF709F94FF4FA73012221
:103AE4000DF10E012846FDF701F901224FF40061A2
:103AF4003046FCF771FD4745DAD102230C2500223C
:103B04004FF4006141488DF80F508DF81330FCF7E5
:103B140063FD4FF4FA73012221463D48FDF7E6F8B0
:103B24004FF4FA7301220DF10F013948FDF7DEF865
:103B340001224FF400613548FCF74EFD9A231A2503
:103B44004FF0880900224FF4006130488DF813309B
:103B5400FCF742FD4FF4FA73012221462C48FDF78D
:103B6400C5F84FF4FA7301220DF112012848FDF74C
:103B7400D3F901224FF400612448FCF72DFD9DF890
:103B84001230002263F07F034FF400611F488DF868
:103B940010308DF81350FCF71FFD4FF4FA73012217
:103BA40021461B48FDF7A2F84FF4FA73012204A939
:103BB4001748FDF79BF801224FF400611348FCF706
:103BC4000BFD00224FF4006110488DF81390FCF7B0
:103BD40003FD4FF4FA73012221460D48FDF786F8E0
:103BE4004FF4FA7301220DF112010948FDF794F91B
:103BF40001224FF400610548FCF7EEFC40F2CF7659
:103C04009DF81250DFF80480014F23E000140140B6
:103C1400300100204FF4006140468DF81390FCF70A
:103C2400DBFC4FF4FA73012221463846FDF75EF8B7
:103C34004FF4FA7301220DF112013846FDF76CF9C5
:103C440001224FF400614046FCF7C6FC013E9DF89A
:103C5400125002D015F03102DCD09A231A27002228
:103C64004FF4006174488DF81330FCF7B5FC4FF441
:103C7400FA73012221467148FDF738F84FF4FA73BC
:103C840001220DF112016D48FDF746F901224FF4AE
:103C940000616948FCF7A0FC9DF81230002203F093
:103CA4007F034FF4006164488DF811308DF8137070
:103CB400FCF792FC4FF4FA73012221465F48FDF7AA
:103CC40015F801220DF111014FF4FA735B48FDF769
:103CD4000DF801224FF400615748FCF77DFC002EDB
:103CE40000F0A0808C2300224FF4006152488DF82C
:103CF4001330FCF771FC4FF4FA73012221464F484C
:103D0400FCF7F4FF4FF4FA7301220DF112014B4852
:103D1400FDF702F901224FF400614748FCF75CFC0F
:103D24009DF8122012F01B067CD1942332464FF4E6
:103D3400006141488DF81330FCF74EFC4FF4FA73E0
:103D4400012221463D48FCF7D1FF4FF4FA730122CA
:103D54000DF112013948FDF7DFF801224FF400613B
:103D64003548FCF739FC982332464FF40061324859
:103D74009DF812608DF81330FCF72EFC4FF4FA73A3
:103D8400012221462D48FCF7B1FF4FF4FA730122BA
:103D94000DF112012948FDF7BFF801224FF400612B
:103DA4002548FCF719FC9DF8128005F0010518F070
:103DB40007081ABF06F1FF3308EBC3084FEAC60829
:103DC400A6BB01231C4F1D4E9B44922300224FF49B
:103DD400006138468DF81330FCF7FEFB4FF4FA739C
:103DE400012221463046FCF781FF4FF4FA73012289
:103DF4000DF112013046FDF78FF801224FF40061F6
:103E04003846FCF7E9FB9DF812300AF8013BDA4525
:103E1400DBD13DB9B8F1180F04D19DF8140009B0F5
:103E2400BDE8F08F002009B0BDE8F08F102E3346B6
:103E340028BF1023C6E700BF001401403001002052
:103E4400502310B582B002AC24F8043D20460DF195
:103E54000601FDF7F9FA214620466A46FDF760FCA3
:103E640002B010BD9023F0B5102783B0224C234D2F
:103E740002AE06F8013D204600224FF40061FCF733
:103E8400ABFB314628464FF4FA730122FCF72EFFB0
:103E94000DF106014FF4FA7328460122FDF73CF8B0
:103EA400204601224FF40061FCF796FB9DF8063092
:103EB400204623F0080300224FF400618DF80630F9
:103EC4008DF80770FCF788FB314628464FF4FA73E7
:103ED4000122FCF70BFF0DF106014FF4FA7328469B
:103EE4000122FCF703FF204601224FF40061FCF796
:103EF40073FB03B0F0BD00BF00140140300100208B
:103F040000200D4A0D4BD16821F08071D160D16839
:103F140041F08071D1601A6822F001021A601A68B7
:103F240042F001021A60586000BF00BF00BF586829
:103F3400B0FA80F040097047F0ED00E0001000E0B6
:103F440010B40E4B0E4A1B6883B00190A2FB0330E1
:103F5400019B0C49800C00246BB14FF47A72019BD5
:103F640002FB00F2013B01934C604B689342FCD38B
:103F7400019B002BF1D103B010BC70470800002056
:103F840083DE1B43001000E010B50220394CFCF71F
:103F94008FF90220FCF78CF9204600224FF480614F
:103FA400FCF71AFB204600224FF40071FCF714FBC7
:103FB40020460022FF21FCF70FFB204601223C2172
:103FC400FCF70AFB204601224FF48071FCF704FB46
:103FD400204600224FF48071FCF7FEFA0220FCF721
:103FE40067F9204600224FF48061FCF7F5FA204679
:103FF40000224FF40071FCF7EFFA20460022FF2163
:10400400FCF7EAFA204601220621FCF7E5FA2046ED
:1040140001224FF48071FCF7DFFA204600224FF4AE
:104024008071FCF7D9FA0220FCF742F920460022FD
:104034004FF48061FCF7D0FA204600224FF400715F
:10404400FCF7CAFA20460022FF21FCF7C5FA2046F5
:1040540001220C21FCF7C0FA204601224FF48071A2
:10406400FCF7BAFA2046BDE8104000224FF48071F4
:10407400FCF7B2BA001C014070B506460120FCF7FB
:1040840017F935784DB3154C0120FCF711F90122CD
:104094004FF480612046FCF79FFA00224FF4007130
:1040A4002046FCF799FA0022FF212046FCF794FAF7
:1040B400294601222046FCF78FFA01224FF4807131
:1040C4002046FCF789FA00224FF480712046FCF761
:1040D40083FA16F8015F002DD6D170BD001C014093
:1040E4002DE9F04106460120FCF7E2F80120FCF737
:1040F400DFF80220FCF7DCF800224FF48061B948B5
:10410400FCF76AFA00224FF40071B648FCF764FA2F
:104114000022FF21B348FCF75FFA01228021B14855
:10412400FCF75AFA01224FF48071AE48FCF754FAB6
:1041340000224FF48071AB48FCF74EFA37788FB306
:104144000025A84C01E0102D2ED00120FCF7B0F87A
:1041540001224FF480612046FCF73EFA00224FF41E
:1041640000712046FCF738FA0022FF212046FCF7B4
:1041740033FA394601222046FCF72EFA01224FF485
:1041840080712046FCF728FA00224FF48071204603
:10419400FCF722FA16F8017F0135ADB2002FD2D117
:1041A400102D01D0BDE8F0810120FCF781F8022038
:1041B400FCF77EF800224FF480618A48FCF70CFA81
:1041C40000224FF400718748FCF706FA0022FF2111
:1041D4008448FCF701FA0122C0218248FCF7FCF96B
:1041E40001224FF480717F48FCF7F6F900224FF466
:1041F40080717C48FCF7F0F93778002FD2D0102575
:10420400784C01E0202D2CD00120FCF751F801223C
:104214004FF480612046FCF7DFF900224FF400716F
:104224002046FCF7D9F90022FF212046FCF7D4F9F7
:10423400394601222046FCF7CFF901224FF4807160
:104244002046FCF7C9F900224FF480712046FCF7A0
:10425400C3F916F8017F0135ADB2002FD2D1202D5C
:10426400A0D10120FCF724F80220FCF721F8002259
:104274004FF480615B48FCF7AFF900224FF4007102
:104284005848FCF7A9F90022FF215648FCF7A4F985
:10429400012290215348FCF79FF901224FF48071C9
:1042A4005048FCF799F900224FF480714D48FCF70F
:1042B40093F996F80080B8F1000F3FF473AF20270C
:1042C400484C02E0302F30D02E460120FBF7F0FF9F
:1042D40001224FF480612046FCF77EF900224FF45E
:1042E40000712046FCF778F90022FF212046FCF7F4
:1042F40073F9414601222046FCF76EF901224FF47E
:1043040080712046FCF768F900224FF48071204642
:10431400FCF762F996F801800137BFB2751CB8F159
:10432400000FCFD1302F7FF43DAF0120FBF7C0FF4A
:104334000220FBF7BDFF00224FF480612948FCF7FF
:104344004BF900224FF400712648FCF745F900228E
:10435400FF212448FCF740F90122D0212148FCF731
:104364003BF901224FF480711E48FCF735F9002215
:104374004FF480711B48FCF72FF92F78002F3FF47E
:1043840011AF184C113602E0B5423FF40BAF0120D7
:10439400FBF78EFF01224FF480612046FCF71CF9E5
:1043A40000224FF400712046FCF716F90022FF2189
:1043B4002046FCF711F9394601222046FCF70CF996
:1043C40001224FF480712046FCF706F900224FF4D5
:1043D40080712046FCF700F915F8017F002FD3D136
:1043E400BDE8F081001C014038B50D4604460120AB
:1043F400FBF75EFF032D71D8DFE805F059422B026D
:104404000220FBF755FF00224FF480613448FCF78B
:10441400E3F800224FF400713148FCF7DDF8FF2186
:1044240000222F48FCF7D8F8A4F13001C9B20122C8
:104434002B48FCF7D1F801224FF480712848FCF78F
:10444400CBF8BDE8384000224FF480712448FCF7D3
:10445400C3B80220FBF72CFF00224FF480612048F0
:10446400FCF7BAF800224FF400711D48FCF7B4F8C9
:10447400FF2100221A48FCF7AFF8A4F17001D5E738
:104484000220FBF715FF00224FF480611448FCF76B
:10449400A3F800224FF400711148FCF79DF8FF21A6
:1044A40000220F48FCF798F8A4F14001BEE702206F
:1044B400FBF7FEFE00224FF480610948FCF78CF8FC
:1044C40000224FF400710648FCF786F8FF21002211
:1044D4000348FCF781F884F08001A8E738BD00BFE9
:1044E400001C014010B50120274CFBF7E1FE02201F
:1044F400FBF7DEFE204600224FF48061FCF76CF8E7
:10450400204600224FF40071FCF766F82046002292
:10451400FF21FCF761F8012220461146FCF75CF804
:10452400204601224FF48071FCF756F82046002201
:104534004FF48071FCF750F80220FBF7B9FE2046D7
:1045440000224FF48061FCF747F8204600224FF424
:104554000071FCF741F820460022FF21FCF73CF8EB
:10456400204601220221FCF737F8204601224FF4AD
:104574008071FCF731F82046BDE8104000224FF46A
:104584008071FCF729B800BF001C01404FF4A02043
:1045940030B50123002402254FF480314FF4E0129A
:1045A40097B00D900CA8CDE90B431093CDE91351AE
:1045B40015920E94019406940F94CDE91144CDE91B
:1045C4000244CDE90444CDE90744CDE90944FCF7AC
:1045D40007F80F224FF48063294601A8019204933F
:1045E400CDE902540594FCF7F3F94FF4004306A80F
:1045F40006950893FCF7B8FA17B030BD2DE9F04FD3
:10460400002499B0FBF730FEFFF7C0FFCDE9134457
:10461400CDE91544C34B224699694FF0110841F086
:1046240080019961986940F2FF7100F08000059063
:1046340005989D69BC4845F008059D619E69012562
:1046440006F008060696069E9F69022647F0400774
:104654009F619F6907F040070797079F9F6947F08D
:1046640020079F619F6907F020070897089F9F69AB
:1046740047F480779F619F6907F480770997099FC2
:104684009F6947F010079F619F6907F010070A9719
:104694000A9F9F6947F004079F619B69032703F002
:1046A40004030B930B9BFBF797FF22464FF4006127
:1046B4009E48FBF791FF22464FF440619C48FBF76C
:1046C4008BFF2A464FF440419948FBF785FF2A4661
:1046D4000C219848FBF780FF22464FF480719548DF
:1046E400FBF77AFF224640219348FBF775FF40F21F
:1046F400FF7313A98C48CDE9133516961594FBF76F
:1047040049FE4FF4006313A98848CDE91454169662
:104714001393FBF73FFE4FF4406313A98448CDE99C
:10472400145416961393FBF735FE4FF4405313A914
:104734007F48CDE914451393FBF72CFE4FF4404317
:1047440013A97B481595CDE913381697FBF722FE7C
:104754000C2313A97748CDE9148516971393FBF717
:1047640019FEF0234FF4807713A972481393CDE90F
:104774001445FBF70FFE13A96E48CDE914541696A1
:104784001397FBF707FE402313A96B481696CDE950
:1047940014541393FBF7FEFD4FF4607313A966489A
:1047A4001393CDE91445FBF7F5FD13A96348CDE94F
:1047B400137415954FF48276FBF7ECFD4FF40075F6
:1047C40010210A225E4B5F4F1846C3E90244C3E935
:1047D4000444C3E908449C62C3E90076C3E9065172
:1047E400DA62FCF743FAFFF78BFB0028FBD105469E
:1047F400FFF7CAFB2A464FF480714E48FBF7ECFEE4
:104804002A4640214C48FBF7E7FE4FF04236FFF7BB
:1048140069FE4FF043344FF044314FF041324A4B7C
:104824001846C3E90566DE611E61C3E90944DC621A
:104834001C62C3E90D11D9631963C3E90022C3E9FA
:104844000222FFF74DFC4FF4FA60FFF779FBFFF704
:1048540049FE4FF47A70FFF773FB01224FF4806135
:104864003348FBF7B9FE6420FBF722FDFDF724FA79
:104874004FF47A70FFF764FB3720FDF7EDF9064635
:10488400324B334C0FCB07C4324623803149324874
:1048940000F044FBFFF726FE29462846FFF7A4FD57
:1048A400A4F10C00FFF7E8FB28460121FFF79CFD6B
:1048B4002948FFF7E1FB4FF47A70FFF741FB274BE0
:1048C40005F18045039305F59035A4F10C0B4FF4E5
:1048D400807304202B61FFF733FB4FF480730026B1
:1048E4006B610EA92620CDE90E66CDE91066FDF7B1
:1048F40015FB002840F0858040230F4A5846136179
:104904009DF83A109DF839309DF8382000911449EB
:1049140000F004FB0120FFF713FB0EA8FDF7B2FD26
:1049240020E000BF00100240001C014000180140BC
:104934000014014000200140001001400008014023
:104944003001002000380040DC0000206C570008D3
:104954008C0000207C570008A0000020B400002038
:10496400845700080446002800F08A804FF47A74C3
:104974000120FFF7E5FAFFF763FA4023CF4AD04F4F
:104984005361FFF7AFFD00210846FFF72DFD5846A0
:10499400FFF772FB01210020FFF726FDC948FFF74E
:1049A4006BFB02210020FFF71FFDC548FFF764FBE6
:1049B40003210020FFF718FDC348FFF75DFB2046E5
:1049C400C24CFFF7BDFA0FCC264656F81089DFF823
:1049D40004E3B146DFF8ECC2AEE80F000FCEACE85A
:1049E4000F00B9E80F000FC7B74E103C8EF80080D7
:1049F4008CF8008087F800800FCC0FC686F8008002
:104A040065E7B34CB34F0FCC0FC7236831463B70F7
:104A14003046AE4CFFF7E8FCA7F11000FFF72CFB83
:104A24000FCC2746DFF89CA257F81099AAE80F008C
:104A3400DFF88C82012130468AF80090FFF7D4FC1D
:104A4400AAF11000FFF718FB0FCFA8E80F009E4F44
:104A54000221304688F80090FFF7C6FC103CA8F10C
:104A64001000FFF709FB0FCC0FC73046032187F86E
:104A74000090FFF7B9FCA7F11000FFF7FDFA26E755
:104A84009DF83B009DF83A109DF83930CDE90010AF
:104A94009DF8382090498B4800F040FA01209DF899
:104AA40038909DF839709DF83A609DF83B80FFF787
:104AB40047FA0EA8FEF7C2FD00283FF457AF87F06F
:104AC4006C0389F0B20089F0550E87F0E50189F096
:104AD4001F0A184487F0090387F04502714489F0DE
:104AE400120C89F0990E9A4489F02C0987F0A203DC
:104AF40087F0880794449E4486F0F2024F4486F07F
:104B0400DA0386F039096244484488F0A80C86F038
:104B1400CA090B4486F0500186F07F06CA44374424
:104B240088F018099444714488F0EC0288F0830EEC
:104B340088F0750688F03D081144704407EB0802BC
:104B44004B4456445FFA80F95FFA8CFA5FFA83F8B3
:104B5400F7B2D3B2CEB2012002938DF835308DF87E
:104B640030A08DF831908DF832808DF833708DF847
:104B74003460FFF7E5F90EAB0CAA03216020FEF7C1
:104B84005BFB00285AD00120CDE90E44CDE9104446
:104B9400FFF7D6F90EA92620FDF7C0F90120FFF78B
:104BA400CFF90EA8FDF76EFC0120FFF7C9F90EA896
:104BB400FEF744FD4FF0FF3301200C93ADF8343081
:104BC400FFF7BEF90EAB0CAA032160204FF6FF7469
:104BD400FEF732FB002860D14FF480513F48FBF7C9
:104BE400F5FC002862D103464FF088314FF0070CE2
:104BF4006AF3070369F30F2368F3174367F31F632B
:104C0400374A1393029B0120CDE915218DF850609A
:104C14008DF851308DF852408DF853C0FFF790F95C
:104C240013A90320FDF7F6FE002863D04FF47A742D
:104C34000120FFF785F9FFF715F999E6204B294A7A
:104C4400039307CA03C34FF4005124481A70FBF7B7
:104C5400BDFC0028EAD14FF0FF336FF078414FF0EC
:104C6400883213931E4B01201491CDE91532FFF7BE
:104C740067F913A90320FDF7CDFE0028D6D1039CC4
:104C8400124E114F0FCE0FC4174B0FCB07C732680C
:104C94003B8022704FF4FA64CAE7144B4FF47A74E1
:104CA40093E80700039B83E80700C1E7064B104A1B
:104CB4004FF47A7407CA03C31A80B9E7001001409D
:104CC400B4000020A0000020C8000020E457000821
:104CD400F85700088C000020945700080014014085
:104CE40080888888A4570008B0570008D85700085F
:104CF400CC570008044B4FF4FA6493E80700034BC5
:104D040003C31A8094E700BFC0570008B400002012
:104D14000D4B82B09A690D4942F001029A619A6979
:104D240002F001020092009ADA6942F08052DA61DC
:104D3400DB6903F080530193019B4B6823F0E0632C
:104D44004B6002B0704700BF0010024000000140F9
:104D540070B5002402681A4B86B09A42CDE9024429
:104D6400CDE9044401D006B070BD4FF420410226C1
:104D7400032503F5EC33DA69124842F48042DA6120
:104D8400DA6902F480420092009A9A6942F00802B9
:104D94009A619B69029103F00803019302A9019BA4
:104DA40003960595FBF7F6FA4FF4804302A90548EC
:104DB400CDE903440293FBF7EDFA06B070BD00BFE2
:104DC40000380040000C0140704700BFFEE700BF00
:104DD400FEE700BFFEE700BFFEE700BF704700BF6D
:104DE400704700BF704700BFFBF750BA704700BF61
:104DF4000C4A08B5136833B169461844884209D887
:104E04001060184608BD08490B46116069461844ED
:104E14008842F5D900F058F80C224FF0FF330260B5
:104E2400184608BD200100209001002030B44FF442
:104E34001F054FF000640E4B0E4A19680E4841F0EE
:104E44000101196059680A405A601A6822F0847294
:104E540022F480321A601A6822F480221A605A6896
:104E640022F4FE025A609D60846030BC704700BF2B
:104E7400001002400000FFF800ED00E0002103E014
:104E84000B4B5B58435004310A480B4B42189A426F
:104E9400F6D30A4A02E0002342F8043B084B9A4244
:104EA400F9D3FFF7C3FF00F015F8FFF7A7FB70472E
:104EB40058580008000000207000002070000020F6
:104EC4008C010020FEE70000014B1868704700BF0A
:104ED4000C00002070B500250C4E0D4CA41BA41032
:104EE400A54209D100F02CFC00250A4E0A4CA41B53
:104EF400A410A54205D170BD56F825309847013558
:104F0400EEE756F8253098470135F2E75058000887
:104F14005058000850580008545800080EB46FF058
:104F2400004100B59CB01DAB02900690079104911E
:104F34000848094953F8042B0591006802A9019314
:104F440000F066F80022029B1A701CB05DF804EBB6
:104F540003B070470C0000200802FFFF2DE9F04762
:104F64008E6882469E420C469046994637D88A8976
:104F740012F4906F31D00223256809696F1A6569AC
:104F840005EB450595FBF3F509F101033B449D420F
:104F940038BF1D46530530D5294600F037FB064679
:104FA40050B90C234FF0FF30CAF80030A38943F006
:104FB4004003A381BDE8F0873A46216900F0B6FAC0
:104FC400A38923F4906343F08003A38126613E44C4
:104FD40026604E466561ED1BA5604E4500D94E46E0
:104FE40032464146206800F0ACFAA36800209B1BBF
:104FF400A36023681E442660DCE72A4600F060FBB9
:1050040006460028E2D12169504600F0B3FAC8E709
:105014002DE9F04F1D468B899DB01F0680460C4636
:1050240016460FD50B696BB9402100F0EFFA2060EA
:10503400206128B90C23C8F800304FF0FF30C8E0D5
:10504400402363610023099320238DF82930302302
:105054004FF0010B8DF82A30039537463D4615F87D
:10506400013B0BB1252B3ED1B7EB060A0BD05346BF
:10507400324621464046FFF771FF013000F0A4801C
:10508400099B534409933B78002B00F09D80002337
:105094004FF0FF32CDE90523049307938DF8533085
:1050A4001A932F46052217F8011B504800F030FAD6
:1050B400049BD0B9D90644BF20228DF853201A0787
:1050C40044BF2B228DF853202A782A2A15D02F4644
:1050D40000200A25079A394611F8013B303B092B79
:1050E4004DD9B8B10FE02F46B8E7404A3D46801A83
:1050F4000BFA00F018430490D3E7039A111D1268C9
:105104000391002A01DB079204E0524243F00203B8
:10511400079204933B782E2B0CD17B782A2B33D126
:10512400039B02371A1D1B680392002BB8BF4FF074
:10513400FF3305932E4D03223978284600F0E8F911
:1051440038B14023401B03FA00F0049B01370343AA
:1051540004933978062227487E1C8DF8281000F025
:10516400D7F9002838D0244B13BB039B073323F013
:10517400070308330393099B4B4409936DE705FB2D
:10518400023201200F46A6E700230A2519460137FB
:105194000593384610F8012B303A092A03D9002B1D
:1051A400C8D00591C6E705FB012101230746F0E7B6
:1051B40003AB00932246114B04A94046AFF3008091
:1051C400B0F1FF3F8146D6D1A3895B063FF535AFE9
:1051D40009981DB0BDE8F08F03AB00932246074B3E
:1051E40004A9404600F082F8EAE700BF1C58000812
:1051F400225800082658000800000000614F0008EB
:105204002DE9F04791461F468A680B69064693428A
:10521400B8BF1346C9F8003091F843200C46DDF8B6
:10522400208012B10133C9F800302368990642BFC7
:10523400D9F800300233C9F80030256815F00605A6
:1052440007D104F1190AE368D9F800209B1AAB428C
:1052540029DC94F843302268003318BF01239206F6
:105264002ED404F1430239463046C047013021D0E0
:105274002368E56803F00603042B18BF0025D9F85A
:1052840000204FF0000908BFAD1AA368226908BFC7
:1052940025EAE5759342C4BF9B1AED181A344D45AF
:1052A4001AD1002008E00123524639463046C0474F
:1052B400013003D14FF0FF30BDE8F0870135C2E77C
:1052C4003020E11881F843005A1C94F84510224418
:1052D400023382F84310C4E701232246394630469C
:1052E400C0470130E6D009F10109D8E72DE9F043C0
:1052F40001F1430C0C46097E85B06E29174606461B
:1053040098460C9A00F0B38022D8632936D00AD884
:10531400002900F0B980582900F0838004F1420587
:1053240084F8421032E0642901D06929F6D120685A
:105334001368050603F104012AD51B681160002BCC
:1053440003DA2D225B4284F843206F480A2239E0B5
:10535400732900F09D8008D86F2920D07029DDD1F1
:10536400236843F02003236003E0752917D07829CC
:10537400D4D17823654884F8453055E0136804F1A6
:105384004205191D1B68116084F8423001238CE02A
:105394001B6810F0400F116018BF1BB2CFE71368F1
:1053A4002568181D1060280601D51B6802E06806F0
:1053B400FBD51B886F2914BF0A22082252480021FA
:1053C40084F843106568002DA560C0F295802168BB
:1053D40021F004012160002B3DD1002D40F08E808E
:1053E4006546082A0BD12368DB0708D52369626860
:1053F4009A42DEBF302305F8013C05F1FF35ACEBE2
:1054040005032361CDF800803B4603AA21463046BC
:10541400FFF7F6FE01304DD14FF0FF3005B0BDE887
:10542400F083394884F84510136821681D1D1B68F2
:1054340015600A060BD5CA0744BF41F0200121605C
:105444001BB9226822F0200222601022B7E74D0621
:1054540048BF9BB2EFE76546B3FBF2F102FB1133A1
:10546400C35C05F8013D0B460029F5D1B9E7136883
:105474002568181D6169106028061B6801D519602C
:1054840002E06A06FBD51980002365462361B9E76B
:105494001368191D11601D6862680021284600F018
:1054A40037F808B1401B606063682361002384F807
:1054B4004330A7E723692A4639463046C0470130BE
:1054C400AAD023689B0713D4E068039B9842B8BF13
:1054D4001846A3E701234A4639463046C0470130FF
:1054E4009AD00135E368039A9B1AAB42F2DCEBE7EE
:1054F400002504F11909F5E7002BACD1037804F178
:10550400420584F842306CE72D5800083E580008E4
:1055140010B5C9B202449042034601D1002303E00E
:105524001C7801308C42F6D1184610BD10B5431ECC
:105534000A44914200D110BD11F8014B03F8014F08
:10554400F7E7884210B501EB020307D8421E9942DF
:105554000AD011F8014B02F8014FF8E78342F5D95C
:105564008118D21AD34200D110BD13F8014D01F8AD
:10557400014DF7E738B50546002943D051F8043CFE
:105584000C1F002BB8BFE41800F0D0F81E4A1368B3
:10559400104633B9636014602846BDE8384000F013
:1055A400C6B8A3420BD921686218934201BF1A6896
:1055B4005B685218226063600460EDE713465A6822
:1055C4000AB1A242FAD919685818A0420BD120682E
:1055D4000144581882421960DED1106852680144AF
:1055E40019605A60D8E702D90C232B60D4E72068ED
:1055F40021188A4201BF116852680918216062604B
:105604005C60C9E738BD00BF2401002070B5CD1C23
:1056140025F0030508350C2D38BF0C25002D064652
:1056240001DBA94203D90C233360002070BD00F0D4
:105634007DF8214A1468214691B9204C23681BB98E
:10564400304600F063F820602946304600F05EF8EA
:10565400431C24D10C233046336000F068F8E4E79F
:105664000B685B1B18D40B2B0FD90B60CC18CD50D7
:10567400304600F05CF804F10B00231D20F0070015
:10568400C31AD3D05A42E250D0E74B688C4216BFBB
:10569400636013600C46EBE70C464968CCE7C41C16
:1056A40024F00304A04205D0211A304600F02EF85D
:1056B4000130CFD02560DBE7240100202801002041
:1056C400F8B5074614460E4621B9BDE8F840114620
:1056D400FFF79CBF22B9FFF74DFF25462846F8BDCA
:1056E40000F026F8A0420FD221463846FFF78EFF7D
:1056F40005460028F2D031462246FFF717FF31460F
:105704003846FFF737FFE9E73546E7E738B50023C2
:10571400054C054608462360FFF76AFB431C02D18B
:10572400236803B12B6038BD88010020704770479F
:1057340051F8043C181F002BBCBF0B58C01870470D
:10574400F8B500BFF8BC08BC9E467047F8B500BF6A
:08575400F8BC08BC9E4670473A
:10575C0002030405060708090A0B0C0D0E0F1010A6
:10576C0052756E6E696E67205243353232000000FE
:10577C007665723A25780000436172643A25782C7C
:10578C0025782C25780000005549443A25782025A9
:10579C007820257820257800417574682E204F4B91
:1057AC00000000004361726420436C6561726564A3
:1057BC0021000000436172642053657421000000D5
:1057CC004E65772043617264210000004175746856
:1057DC002E204572726F7200202020202020202065
:1057EC002020202020202020000000005761697418
:1057FC00696E6720666F722043617264000000005E
:10580C000000000000000000010203040607080964
:10581C00232D302B2000686C4C006566674546478D
:10582C000030313233343536373839414243444510
:10583C00460030313233343536373839616263647F
:04584C00656600008D
:045850000902000841
:04585400E501000862
:1058580001000000100000000024F40010000020E7
:105868000000000000000000000000000000000030
:105878000000000000000000000000000000000020
:105888000000000000000000000000000000000010
:105898000000000000000000000000000000000000
:1058A80000000000000000000000000000000000F0
:1058B80000000000000000000000000000000000E0
:0400000508004E8120
:00000001FF
